:101A2200120006121C93121C52D2BCC2B9121B8C99
:101A320012000E121C1AD2AF121BE8121C5C121AF0
:101A420057121C85300107C2CD85161EC201AF1E7A
:051A5200121C7780E387
:10000E00438E805389F0758A40758CA2C28DD28C36
:03001E00D2A92242
:03000B0002197C5B
:10197C00C0E0C0F0C083C082C0D075D008051DE5A2
:10198C001D7002051C64E87004E51C6403703CF5D2
:10199C001CF51DC2A8AE53AF547C017D8612131BDF
:1019AC008F1B851B33755300755400751F007431E4
:1019BC00251FF8E6FF121C6F051FE51FC39403409B
:1019CC00EDE51FB40303751F00D2A8D0D0D082D090
:0619DC0083D0F0D0E032E0
:0F1C1A00E4F5D8F5D9F5E9F5F975DA42F5F222D6
:071C77008FEA8FFAD2DE2292
:10137E00EFD3940540037F01221212C3FED39401D2
:10138E0040037F0222EF7041EE700B9000011212AB
:10139E00DCF4529352941212C3B4020B9000011259
:1013AE0012DC4293F452941212C3FEB4030A90005C
:1013BE00011212DC42934294EEB4010D9000011220
:1013CE0012DCFEF45293EE4294EF6401704312125B
:1013DE00C3FE700B9000011212DCF452915292EE89
:1013EE00B4020B9000011212DC4291F452921212CE
:1013FE00C3B4030A9000011212DC429142921212FF
:10140E00C3B4010D9000011212DCFEF45291EE42B3
:10141E0092EF640270431212C3FE700B9000011221
:10142E0012DCF452955296EEB4020B900001121299
:10143E00DC4295F452961212C3B4030A90000112C4
:10144E0012DC429542961212C3B4010D90000112A5
:10145E0012DCFEF45295EE4296EF640370431212C4
:10146E00C3FE700B9000011212DCF452B152B2EEB8
:10147E00B4020B9000011212DC42B1F452B21212FD
:10148E00C3B4030A9000011212DC42B142B212122E
:10149E00C3B4010D9000011212DCFEF452B1EE4203
:1014AE00B2EF640470431212C3FE700B900001126F
:1014BE0012DCF452B352B4EEB4020B9000011212CD
:1014CE00DC42B3F452B41212C3B4030A90000112F8
:1014DE0012DC42B342B41212C3B4010D90000112D9
:1014EE0012DCFEF452B3EE42B4EF640570431212F6
:1014FE00C3FF700B9000011212DCF452C952CAEFF6
:10150E00B4020B9000011212DC42C9F452CA12123C
:10151E00C3B4030A9000011212DC42C942CA12126D
:10152E00C3B4010D9000011212DCFFF452C9EF4258
:04153E00CA7F00223E
:0C1BD600071000000000000000011801D2
:101B8C00759850438E40538EFE53890F758BCC75D0
:0B1B9C008DFFC2ABD28ED2ACD2AF22C4
:030023000216E0E2
:1016E000C0E0C0D075D008209803021791C298744A
:1016F000102518F8A699E518B401132410F8E6B4DB
:10170000AA0C751802751900751AAA021791E51826
:10171000B4020E2410F8E6B40507751803740580AA
:1017200024E518B4030E2410F8E6B4AF07751804C6
:1017300074AF8011E518B404172410F8E6B4F11062
:1017400075180574F1251AF51AE43519F519804153
:10175000E518B405142410F8E6B4010D7518060553
:101760001AE51A702C05198028E518B40617051813
:1017700074102518F8E6251AF51AE43519F519E557
:101780001AF517800CE518B40704D201800075180B
:0D17900001309904C299C202D0D0D0E032DD
:081C6F002002FDD2028F992230
:101B03008B4E8A4F8950AB4EAA4FA9501212C36015
:101B1300130550E5507002054F14F91212C3FF125A
:051B23001C6F80E222AE
:051BE2000331000000CA
:0A1C5200E4F59275910175DE0F2292
:101BE80075BC8043BC400000E5BC30E5FB53BCDF5E
:011BF80022CA
:0A1C5C0075DE2085BD3085BE342200
:101A5700AE307C00E42534F52FEC3EF52EFCAD2F9F
:101A6700E41212097B217A0D79D2783D1210FE1209
:0E1A770012428E2C8F2DE52CF531EFF5322228
:100026000000000000000000002F00000000070094
:10003600070000147F147F1400242A7F2A1200620E
:1000460064081323003649552250000005030000BA
:1000560000001C224100000041221C000014083E42
:1000660008140008083E0808000000A06000000808
:10007600080808080000606000000020100804025C
:10008600003E5149453E0000427F4000004261511A
:100096004946002141454B31001814127F100027B4
:1000A60045454539003C4A49493000017109050377
:1000B60000364949493600064949291E00003636A8
:1000C600000000005636000000081422410000140B
:1000D60014141414000041221408000201510906E8
:1000E60000324959513E007C1211127C007F494969
:1000F6004936003E41414122007F4141221C007F9A
:1001060049494941007F09090901003E4149497AA7
:10011600007F0808087F0000417F41000020404121
:100126003F01007F08142241007F40404040007F8D
:10013600020C027F007F0408107F003E4141413ED1
:10014600007F09090906003E4151215E007F091919
:1001560029460046494949310001017F0101003F16
:100166004040403F001F2040201F003F4038403F96
:1001760000631408146300070870080700615149FA
:10018600454300007F41410000552A552A5500008D
:1001960041417F000004020102040040404040400B
:1001A600000001020400002054545478007F4844A3
:1001B600443800384444442000384444487F0038DA
:1001C6005454541800087E0901020018A4A4A47C03
:1001D600007F080404780000447D400000408084CD
:1001E6007D00007F102844000000417F4000007C15
:1001F60004180478007C0804047800384444443821
:1002060000FC242424180018242418FC007C08046C
:10021600040800485454542000043F444020003C45
:100226004040207C001C2040201C003C4030403CCC
:10023600004428102844001CA0A0A07C004464545C
:100246004C441414141414140000000000000000A0
:100256000000000000000000000000F800000000A0
:10026600000000333000000000100C06100C0600E1
:10027600000000000000000040C07840C078400048
:10028600043F04043F040400007088FC08300000AA
:10029600001820FF211E0000F008F000E018000002
:1002A60000211C031E211E0000F0088870000000BB
:1002B6001E2123241927211010160E00000000000D
:1002C6000000000000000000000000E0180402002A
:1002D600000000071820400000020418E00000009B
:1002E6000040201807000000404080F08040400099
:1002F6000202010F01020200000000F000000000EF
:100306000101011F010101000000000000000000C2
:1003160080B0700000000000000000000000000037
:1003260000010101010101010000000000000000C0
:10033600003030000000000000000000806018045B
:10034600006018060100000000E010080810E00038
:10035600000F102020100F00001010F80000000001
:100366000020203F20200000007008080888700048
:1003760000302824222130000030088888483000C8
:100386000018202020110E000000C02010F80000E8
:1003960000070424243F240000F808888808080081
:1003A6000019212020110E0000E010888818000096
:1003B600000F112020110E0000380808C838080068
:1003C6000000003F000000000070880808887000E8
:1003D600001C222121221C0000E010080810E00069
:1003E6000000312222110F00000000C0C0000000F2
:1003F6000000003030000000000000800000000017
:10040600000080600000000000008040201008000E
:1004160000010204081020004040404040404000D7
:1004260004040404040404000008102040800000B2
:100436000020100804020100007048080808F000B7
:100446000000003036010000C030C828E810E00087
:100456000718272423140B000000C038E000000012
:10046600203C23020227382008F88888887000007C
:10047600203F202020110E00C03008080808380050
:10048600071820202010080008F808080810E000C7
:10049600203F202020100F0008F88888E808100068
:1004A600203F20202320180008F88888E80810003C
:1004B600203F200003000000C03008080838000074
:1004C60007182020221E020008F808000008F80875
:1004D600203F210101213F20000808F808080000FC
:1004E6000020203F2020000000000808F80808002F
:1004F600C08080807F00000008F888C028180800A7
:10050600203F20012638200008F8080000000000DF
:10051600203F20202020300008F8F800F8F80800D6
:10052600203F003F003F200008F830C00008F808D0
:10053600203F200007183F00E01008080810E000E0
:100546000F10202020100F0008F808080808F000F7
:10055600203F210101010000E01008080810E0001A
:100566000F18242438504F0008F8888888887000AF
:10057600203F2000030C302000708808080838004F
:100586000038202121221C00180808F80808180045
:100596000000203F2000000008F808000008F808C6
:1005A600001F202020201F000878880000C8380877
:1005B600000007380E010000F80800F80008F800EF
:1005C600033C0700073C0300081868808068180889
:1005D60020302C03032C30200838C800C838080007
:1005E6000000203F2000000010080808C838080056
:1005F6002038262120201800000000FE02020200FA
:100606000000007F40404000000C30C000000000A9
:10061600000000010638C00000020202FE000000D1
:10062600004040407F000000000004020202040077
:1006360000000000000000000000000000000000B4
:10064600808080808080808000020204000000009C
:100656000000000000000000000080808080000094
:100666000019242222223F2008F800808000000082
:10067600003F112020110E00000000808080000045
:10068600000E112020201100000000808088F80054
:10069600000E112020103F20000080808080000086
:1006A600001F222222221300008080F088888818EA
:1006B6000020203F202000000000808080808000F5
:1006C600006B94949493600008F80080808000008A
:1006D600203F210000203F20008098980000000065
:1006E6000020203F20200000000000809898000095
:1006F60000C08080807F000008F8000080808000B5
:10070600203F24022D302000000808F800000000D9
:100716000020203F20200000808080808080800094
:10072600203F20003F20003F808000808080000026
:10073600203F210000203F200000808080800000B4
:10074600001F202020201F008080008080000000E5
:1007560080FFA12020110E00000000808080800014
:10076600000E112020A0FF80808080008080800005
:1007760020203F2120000100000080808080800032
:100786000033242424241900008080E080800000A7
:100796000000001F202000008080000000808000F4
:1007A600001F202020103F20808080000080808055
:1007B60000010E30080601008080008000808080E5
:1007C6000F300C030C300F0000808000808080000A
:1007D6000020312E0E312000808080000080808035
:1007E60080818E70180601000080808080808000E5
:1007F6000021302C2221300000000000807C020203
:1008060000000000003F404000000000FF00000024
:1008160000000000FF0000000002027C80000000D3
:100826000040403F000000000006010102020404EF
:1008360000000000000000001010D0FF90100042E1
:10084600E2524AC64240C00000000000000000001C
:100856000000000000000000040300FF0023108CCD
:100866004320184780403F000000000000000000C1
:10087600000000000000000000FC0404FC105454BA
:1008860054FF54547C1010000000000000000000CB
:100896000000000000000000000F04048F403F0825
:1008A60004FF0408FF000000000000000000000034
:1008B60000000000000000000000FE021222C2023A
:1008C600C23202FE0000000000000000000000002E
:1008D600000000000000000080601F0020100C03D4
:1008E6000C30000F3040F80000000000000000004F
:1008F60000000000000000000003050911FF118937
:1009060005C300E000F000F800000000000000440D
:1009160028FF11AA440000000000000000000000AB
:1009260000000000000000000000000000000000C1
:1009360000000000000000000000000000000000B1
:1009460000000000000000000000000000000000A1
:1009560000008301384482929274018300000000F3
:100966000000007C44FF017D7D7D017D7D7D7D0154
:100976007D7D7D7D7D01FF000000000000010001FE
:10098600000100010001000100000000000000005D
:10099600000101000000000000000000000000004F
:1009A6000000000000000000000000000000000041
:1009B6000000000000000000000000000000000031
:1009C6000000000000000000000000000000000021
:1009D600000001010000000000000101000000000D
:1009E60000000000000101010101010101010101F6
:1009F60001010101010101000000000000000000EA
:100A060000000000000000000000000000000000E0
:100A1600000000003F3F0303F313111111111111E0
:100A260001F1116181010101816111F101010101F0
:100A36004141F10101010101C1211111111121C130
:100A4600010101014141F101010101010101010120
:100A5600011111111111D33303033F3F00000000B0
:100A66000000000000000000000000000000000080
:100A76000000000000000000000000000000000070
:100A86000000000000000000000000000000000060
:100A960000000000E0E000007F010101010101000B
:100AA600007F0000010618060100007F000000001C
:100AB60040407F40400000001F2040404040201F33
:100AC6000000000040407F40400000000060000041
:100AD600000040300C0300000000E0E000000000D1
:100AE6000000000000000000000000000000000000
:100AF60000000000000000000000000000000000F0
:100B060000000000000000000000000000000000DF
:100B16000000000007070606060604040484444491
:100B260044840404844444448404040484C40404BF
:100B3600040484444444840404040404844444446F
:100B4600840404040404844444448404048444441F
:100B56004484040404040606060607070000000091
:100B6600000000000000000000000000000000007F
:100B7600000000000000000000000000000000006F
:100B8600000000000000000000000000000000005F
:100B96000000000000000000000000000010181413
:100BA600121100000F1010100F000000101F10008F
:100BB6000000081012120D00001800000D1212128B
:100BC6000D0000180000101814121100001018145F
:100BD60012110000000000000000000000000000EC
:100BE60000000000000000000000000000000000FF
:100BF60000000000000000000000000000000000EF
:100C060000000000000000000000000000000000DE
:100C160000000000000000000000000000000000CE
:100C260000000000000000000000000000000000BE
:100C360000000000808080808080808000000000AE
:100C4600000000000000000000000000000000009E
:100C5600000000000000000000000000000000008E
:100C6600000000000000000000000000000000007E
:100C76000000000000000000007F030C300C037F22
:100C860000003854545800007C04047800003C40AE
:100C9600407C000000000000000000000000000092
:100CA600000000000000000000000000000000003E
:100CB60000000000FFAAAAAA280800FF0000000002
:100CC600000000000000000000000000000000001E
:100CD600000000000000000000000000000000000E
:100CE600007F030C300C037F00002649494932007F
:100CF600007F020408107F000003050911FF118917
:100D060005C300E000F000F8000000000000004409
:100D160028FF11AA440000000000000000000000A7
:100D260000000000000000000000000000000000BD
:100D360000000000000000000000000000000000AD
:100D4600000000000000000000000000000000009D
:100D560000008301384482929274018300000000EF
:100D66000000007C44FF017D7D7D7D017D7D7D7DD4
:100D7600017D7D7D7D01FF00000000000001000176
:100D86000001000100010001000000000000000059
:100D9600000101000000000000000000000000004B
:100DA600000000000000000000000000000000003D
:100DB600000000000000000000000000000000002D
:100DC600000000000000000000000000000000001D
:100DD6000000010100000000000001010000000009
:100DE60000000000000101010101010101010101F2
:100DF60001010101010101000000000000000000E6
:100E060000000000000000000000000000000000DC
:100E160000000000000000F808080808080808009C
:100E2600F8186080000000806018F800000020209C
:100E3600F8000000000000E0100808080810E000B4
:100E460000002020F8000000000000000000000064
:100E5600000808080808886818000000000000005C
:100E6600000000000000000000000000000000007C
:100E7600000000000000000000000000000000006C
:100E8600000000000000000000000000000000005C
:100E9600000000000000007F0101010101010000C7
:100EA6007F0000010618060100007F000000404098
:100EB6007F4040000000001F2040404040201F00AF
:100EC600000040407F40400000000000600000003D
:100ED600000000601806010000000000000000008D
:100EE60000000000000000000000000000000000FC
:100EF60000000000000000000000000000000000EC
:100F060000000000000000000000000000000000DB
:100F1600000000000000000000000000004020204B
:100F260020C00000E0202020E000000040E000009B
:100F3600000060202020E00000000000E0202020CB
:100F4600E0000000000040202020C00000402020DB
:100F560020C00000000000000000000000000000AB
:100F6600000000000000000000000000000000007B
:100F7600000000000000000000000000000000006B
:100F8600000000000000000000000000000000005B
:100F9600000000000000000000000000000C0A0A2B
:100FA600090C00000F0808080F000000080F0800D1
:100FB60000000C0809090E00000C00000F090909C1
:100FC6000F00000C00000C0A0A090C00000C0A0AAB
:100FD600090C0000000000000000000000000000F6
:100FE60000000000000000000000000000000000FB
:100FF60000000000000000000000000000000000EB
:1010060000000000000000000000000000000000DA
:1010160000000000000000000000000000000000CA
:1010260000000000000000000000000000000000BA
:1010360000000000808080808080808000000000AA
:10104600000000000000000000000000000000009A
:10105600000000000000000000000000000000008A
:10106600000000000000000000000000000000007A
:101076000000000000000000007F030C300C037F1E
:1010860000003854545800007C04047800003C40AA
:10109600407C00000000000000000000000000008E
:1010A600000000000000000000000000000000003A
:1010B60000000000FFAAAAAA280800FF00000000FE
:1010C600000000000000000000000000000000001A
:1010D600000000000000000000000000000000000A
:1010E600007F030C300C037F00002649494932007B
:0810F600007F020408107F00D6
:091C6600D2C5D2C4C2C4C2C52219
:071C7E00D2C5C2C4D2C4228A
:0B1C0A00121AE4121C15AF04121AE4B9
:051C1500D2C5C2C5228A
:071ADD00AC07121C667F78C4
:101AE400C2C5E4FEAD07530580BD8004D2C48002A4
:0E1AF400C2C4EF25E0FFD2C5C2C50EBE08E693
:011B020022C0
:0E1C2900121ADD121C15E4FF121C0A021C7EAA
:0E1C3700121ADD121C157F40121C0A021C7EC0
:101A8500E924B0FFE433FEE4FDFC121AA0E4FDFCFA
:0B1A9500FFFE121AA07F10E4FDFCFE13
:101AA000AB07AA06ED4C6003021C37AF03121C29DA
:011AB0002213
:021B28008F51DB
:101B2A00E4F9121A85E4F552AF517E007D017C007A
:101B3A00121AA00552E552C3948040EC09B908E292
:011B4A002278
:101AB100A907ED24B0FFE433FEE4FDFC121AA0E90E
:101AC10054F0C4540F7E004410FFE4FDFC121AA030
:0C1AD100E9540FFF7E00E4FDFC021AA0A7
:101BBF007F8D121A9CE4FDFC7F14FE121AA0E4FD27
:071BCF00FC7FAFFE021AA02B
:101BF900E4FDFC7F8D121A96E4FDFC7FAEFE021A0D
:011C0900A03A
:101B6C00E4F9121A85E4F5557D017C00E4FFFE12C0
:0F1B7C001AA00555E555C3948040ED09B908E35B
:011B8B002237
:101B4B00E4F9121A85E4F5567D017C007F017E00D5
:101B5B00121AA00556E556C3948040EC09B908E269
:011B6B002257
:041622008F458D461D
:10162600E4F549F9EB24E0F549E545D3947F400715
:10163600E4F54505460546E54864107069AD46AFD4
:1016460045121AB1E4F975F010E549A429F582E4CA
:1016560035F0F583E582244EF582E5833402F58381
:10166600E493FF7E007D017C00121AA009B908D61A
:10167600E54604FDAF45121AB1E4F975F010E549E7
:10168600A429F582E435F0F583E5822456F582E552
:10169600833402F583E493FF7E007D017C00121AF9
:1016A600A009B908D622AD46AF45121AB1E4F975BC
:1016B600F006E549A42426F582E5F03400F583E535
:1016C6008229F582E43583F583E493FF7E007D016C
:0916D6007C00121AA009B906D625
:0116DF0022E8
:041BA7008F57A905A6
:101BAB007F017E00AD0119ED6009AD577C0012136A
:031BBB000980F1AD
:011BBE002204
:081829008F358D368A378B38AC
:10183100E4F53DF53BE53BC395395065C3E5399585
:101841003B14FD7F0A121BA7AC37AD38CFCDCFCEED
:10185100CCCE12131B7C007D0A12131B8D3CE53D7F
:101861007023E53914FFE53BC39F5019E53C701225
:10187100E53AC313853BF0A42535FF853A487B2023
:101881008016753D01E53AC313853BF0A42535FF6C
:10189100E53C2430FB853A48AD36121622053B80E3
:0118A10094B2
:0118A2002223
:0A19E2008F3E8D3F8B408A41894201
:1019EC00E4F544AB40AA41A94285448275830012B8
:1019FC0012DCFB6020854348AD3FAF3E12162274CB
:101A0C0008253EF53ED394784007E4F53E053F05A6
:051A1C003F054480CEEF
:011A210022A2
:0618A3008F4A8D4B8B4CB7
:1018A900E4F54D121AB1E4F9E54C75F040A4243E73
:1018B900F582E43408F583E58229F582E43583F578
:1018C90083E493FF7E007D017C00121AA0054D0977
:1018D900B910D5E54B04FDAF4A121AB1E4F9E54C4C
:1018E90075F040A4245EF582E43408F583E5822985
:1018F900F582E43583F583E493FF7E007D017C0066
:09190900121AA0054D09B910D510
:0119120022B2
:041913008F218B2372
:10191700E4F528F529E5245407700BE52413131380
:10192700541FF52B800AE524131313541F04F52BBA
:101937008D2BE52BC39524503BAD2BAF21121AB14C
:1019470085212AE52AC395235026AB25AA26A92750
:101957000529E529AE287002052814F5828E831221
:1019670012DCFF7E007D017C00121AA0052A80D3BD
:04197700052B80BEFE
:01197B002249
:10154200E4FDFC7FAEFE121A8FE4FDFC7F40FE122A
:101552001AA0E4FDFC7FB0FE121AA0E4FDFC7F811C
:10156200FE121AA0E4FDFC7FFFFE121AA0E4FDFCAD
:101572007FA1FE121AA0E4FDFC7FA6FE121AA0E4CF
:10158200FDFC7FA8FE121AA0E4FDFC7F3FFE121AAA
:10159200A0E4FDFC7FC8FE121AA0E4FDFC7FD3FE8E
:1015A200121AA0E4FDFCFFFE121AA0E4FDFC7FD596
:1015B200FE121AA0E4FDFC7F80FE121AA0E4FDFCDC
:1015C2007FD8FE121AA0E4FDFC7F05FE121AA0E4E9
:1015D200FDFC7FD9FE121AA0E4FDFC7FF1FE121A77
:1015E200A0E4FDFC7FDAFE121AA0E4FDFC7F12FEED
:1015F200121AA0E4FDFC7FDBFE121AA0E4FDFC7FC0
:1016020030FE121AA0E4FDFC7F8DFE121AA0E4FD4A
:10161200FC7F14FE121AA0E4FDFC7FAFFE021AA0AA
:05000600C2A0C2A1220E
:071C8500D2A2D2A0C2A122ED
:071C8C00D2A2C2A0D2A122E6
:051C9300D288D2A82256
:03000300021C4597
:0D1C4500C0E00554E55470020553D0E032B4
:1010FE00EC4D6011E8497017ED33EC3304600DE4EC
:10110E00FCFFFEFD22E933E8330470F80212AE1242
:10111E00127958046009E4CC248150062850090243
:10112E0012B82840030212B5C0E0EB4A7044B980F1
:10113E0006D0E0FB0212A4EF4E701CBD8008EBFF40
:10114E00EAFEE9FD80EBE98DF0A4FEE5F00211E781
:10115E00E9CDF9EAFEEBFFEF89F0A4FCE5F0CE89CC
:10116E00F0A42EFFE435F0CD89F0A42DFEE435F089
:10117E008067EF4E7005BD80D780C3EF8BF0A4ACB7
:10118E00F0EE8BF0A42CFCE435F0F8EF8AF0A42CF2
:10119E00E5F038FCE433CB8DF0A42CFCE5F03BF805
:1011AE00EE8AF0A42CFCE5F038F8E433CF89F0A4F5
:1011BE002CFCE5F038CF3400CE89F0A42FFFE5F0FB
:1011CE003EFEE433C98DF0A42EFEE5F039CD8AF053
:1011DE00A42FFFE5F03EFEE43DFD33D0E0FB5007CB
:1011EE000BBB000F0212B8EC2CFCEF33FFEE33FEFC
:0611FE00ED33FD0212902A
:1012040075F020800E75F010800575F0087D007E65
:10121400007F003392D530D503121370EC334010A5
:10122400EF33FFEE33FEED33FDEC33FCD5F0ED226E
:0E123400E5F0247EA2D513CC92E7CDCEFF22AA
:10124200EDD2E7CD33EC3392D524814006E4FFFEA4
:10125200FDFC22FCE4CFCECDCC24E0501174FF8003
:10126200EDC3CC13CCCD13CDCE13CECF13CF0470A0
:07127200F030D5DE0213701D
:10127900E9D2E7C933E833F892D5EDD2E7CD33ECBB
:0712890033FC5002B2D52234
:10129000EC30E7100FBF000C0EBE00080DBD0004BF
:1012A0000BEB6014A2D5EB13FCED92E7FD2274FF6B
:1012B000FCFDFEFF22E480F8A2D574FF13FC7D80C4
:0312C000E480EFD8
:0300000002179D47
:0C179D00787FE4F6D8FD7581570217E450
:1012C300BB010689828A83E0225002E722BBFE0229
:0912D300E32289828A83E493225C
:1012DC00BB010CE58229F582E5833AF583E02250C7
:1012EC0006E92582F8E622BBFE06E92582F8E22211
:0D12FC00E58229F582E5833AF583E493222B
:10130900EF8DF0A4A8F0CF8CF0A428CE8DF0A42EF8
:02131900FE22B2
:10131B00BC000BBE0029EF8DF084FFADF022E4CCB6
:10132B00F875F008EF2FFFEE33FEEC33FCEE9DEC7F
:10133B00984005FCEE9DFE0FD5F0E9E4CEFD22EDC5
:10134B00F8F5F0EE8420D21CFEADF075F008EF2F0F
:10135B00FFED33FD4007985006D5F0F222C398FD00
:05136B000FD5F0EA229D
:0E137000C3E49FFFE49EFEE49DFDE49CFC228E
:1017A900021A22E493A3F8E493A34003F68001F21A
:1017B90008DFF48029E493A3F85407240CC8C33341
:1017C900C4540F4420C8834004F456800146F6DF10
:1017D900E4800B0102040810204080901BD6E47EAF
:1017E900019360BCA3FF543F30E509541FFEE49305
:1017F900A360010ECF54C025E060A840B8E493A3CC
:10180900FAE493A3F8E493A3C8C582C8CAC583CAF6
:10181900F0A3C8C582C8CAC583CADFE9DEE780BEAE
:011BE70000FD
:00000001FF
