:0903CE00011403011003010C06E7
:10031B007D017F381203937D017F081203937D01CA
:10032B007F011203937D017F061203937D017F0CE6
:03033B0002039327
:1003A80075A0FFC282D28100D2800000E5A020E7BC
:0403B800FBC28022E2
:10039300ED60031203A8C282C281008FA000D28045
:0503A3000000C28022F1
:1003BC001203A8D282C281008FA000D2800000C29A
:0203CC0080228D
:10035E00AE07AC0353050153060FED600343064091
:0F036E00430680AF06E4FD120393AF040203BC05
:10033E00E4FDFCC3ED9FEC9E5015E4FBFA0BBB00F5
:0F034E00010AEB64794A70F50DBD00010C80E4E3
:01035D00227D
:10037D00758951E4F58DF58B758CE0F58AD2AFD288
:06038D00A9D28CD28E22E1
:0C02CF00FDAF82AE8312027A8E838F8214
:1002DB00AB07AA067C007D6412027AEF2430F50985
:1002EB007C007D64AF03AE0212027AAA04AB057CDC
:1002FB00007D0AAF03AE0212027AEF2430F50AAE8C
:10030B0002AF037C007D0A12027AED2430F50B223A
:10000E007F0A7E0012033E12031BC291C29012039E
:10001E007D7B54E4FDFF12035E7B43E4FD7F011202
:10002E00035E7B53E4FD7F0212035E7B32E4FD7FB1
:10003E000312035E0BE4FD7F0412035E7B30E4FDCE
:10004E007F0512035E7B52E4FD7F0A12035E7B5B2B
:10005E00E4FD7F0B12035EAB15E4FD7F0C12035E15
:10006E00AB16E4FD7F0D12035EAB17E4FD7F0E129F
:10007E00035E7B5DE4FD7F0F12035E7B477D01E433
:10008E00FF12035E7B5B7D017F0112035EAB117D70
:10009E00017F0212035EAB127D017F0312035EAB82
:1000AE00137D017F0412035E7B5D7D017F051203CC
:1000BE005E7B427D017F0A12035E7B5B7D017F0BBF
:1000CE0012035EAB0D7D017F0C12035EAB0E7D0144
:1000DE007F0D12035EAB0F7D017F0E12035E7B5D03
:1000EE007D017F0F12035E7F647E0012033E0200CD
:0100FE001FE2
:03000B000200FFF1
:1000FF00C0E0C0F0C083C082C0D075D000C000C0C7
:0B010F0002C003C004C005C006C0070A
:10011A00B292C28CC28EE50870330508D291D29091
:10012A00AF8DFE7408A807088005C333CE33CED836
:10013A00F9AD8B7C002DF582EC3EF583E5141202B5
:10014A00CF850B17850A168509150201C5E50864CE
:10015A000170320508D291C290AF8DFE7408A807CB
:10016A00088005C333CE33CED8F9AD8B7C002DF58C
:10017A0082EC3EF583E5101202CF850B13850A1235
:10018A008509118036E50864027030F508C291C20B
:10019A0090AF8DFE7408A807088005C333CE33CE0E
:1001AA00D8F9AD8B7C002DF582EC3EF583E50C1277
:1001BA0002CF850B0F850A0E85090D758CE0758AAD
:0B01CA0000758B00758D00D28CD28E6A
:1001D500D007D006D005D004D003D002D000D0D0AF
:0901E500D082D083D0F0D0E032CA
:030000000201EE0C
:0C01EE00787FE4F6D8FD75811702023519
:10027A00BC000BBE0029EF8DF084FFADF022E4CC68
:10028A00F875F008EF2FFFEE33FEEC33FCEE9DEC31
:10029A00984005FCEE9DFE0FD5F0E9E4CEFD22ED77
:1002AA00F8F5F0EE8420D21CFEADF075F008EF2FC1
:1002BA00FFED33FD4007985006D5F0F222C398FDB2
:0502CA000FD5F0EA224F
:1001FA0002000EE493A3F8E493A34003F68001F20D
:10020A0008DFF48029E493A3F85407240CC8C33305
:10021A00C4540F4420C8834004F456800146F6DFD4
:10022A00E4800B01020408102040809003CEE47E93
:10023A00019360BCA3FF543F30E509541FFEE493C9
:10024A00A360010ECF54C025E060A840B8E493A390
:10025A00FAE493A3F8E493A3C8C582C8CAC583CABB
:10026A00F0A3C8C582C8CAC583CADFE9DEE780BE73
:0103D7000025
:00000001FF
