:1027F600202020202031322F32392031303A343215
:1028060000202020202031322F32392031303A3436
:102816003300202020202031322F32392031302041
:10282600343300202020202031322F32392031301D
:042836002034320018
:10265E004400930000000044009700000000440076
:0C266E009B0000000044009F00000000E2
:0C19B200900072EEF0A3EFF0AB05AA0469
:1019BE00A31217253FA7EF9E90007812172538D156
:1019CE00B71790007C12172500000000C39000731B
:1019DE00E09BFD900072E09AFCE412154290009399
:1019EE0012171990009FE0F8A3E0F9A3E0FAA3E024
:1019FE00FBC000C001C002C003900097E0F8A3E056
:101A0E00F9A3E0FAA3E0FB900093E0FCA3E0FDA3B2
:101A1E00E0FEA3E0FF1212C9900074E0F8A3E0F913
:101A2E00A3E0FAA3E0FB1213BEC004C005C006C0BB
:101A3E0007900093E0FCA3E0FDA3E0FEA3E0FF907F
:101A4E000078E0F8A3E0F9A3E0FAA3E0FB1213BEDE
:101A5E00D003D002D001D0001212CDC004C005C0F8
:101A6E0006C00790009BE0F8A3E0F9A3E0FAA3E01C
:101A7E00FB900097E0FCA3E0FDA3E0FEA3E0FF12C5
:101A8E0012C9C004C005C006C007900097E0F8A3B5
:101A9E00E0F9A3E0FAA3E0FB900093E0FCA3E0FDE5
:101AAE00A3E0FEA3E0FF1212C9D003D002D001D0F2
:101ABE00001212C990007CE0F8A3E0F9A3E0FAA3AB
:101ACE00E0FB1213BED003D002D001D0001212CD13
:101ADE00D003D002D001D0001212CD90009F121769
:101AEE0019900097E0FCA3E0FDA3E0FEA3E0FFA3A6
:101AFE00121719900093E0FCA3E0FDA3E0FEA3E013
:101B0E00FFA3121719E4FFFE7D7F7C4390009FE038
:101B1E00F8A3E0F9A3E0FAA3E0FB1214C4600C40B2
:101B2E000A90009F121725437A0000E4FFFEFDFC89
:101B3E0090009FE0F8A3E0F9A3E0FAA3E0FB1214F3
:101B4E00C4500A90009F12172540A0000090009FDD
:101B5E00E0F8A3E0F9A3E0FAA3E0FBE4FFFE7D7F4B
:0B1B6E007C431212C912157B02000E0E
:10175600E4900064F0A3F0A3F0A3F0A37406F0A352
:10176600E4F0A3F0A3F0A3F0A3F0A3F0A3F0A3F09A
:10177600A3F0D204C205C202C201C2A612270F12EA
:101786002B4D122B7B122BEA122B33122C32121FEB
:10179600EC12258CE4FF122A8D300A1EC20A900034
:1017A6006FE004F0700690006EE004F09000B7A3BE
:1017B600E0FF12219A900068EFF020013C90007142
:1017C600E004F07006900070E004F07BFF7A277961
:1017D600F6900077740CF07D07E4FF1225FEC390A7
:1017E6000071E0943C900070E09400402FE4F0A378
:1017F600F07BFF7A2879078016900070E07002A3CC
:10180600E07BFF70067A28791880047A2879299077
:101816000077740CF07D07E4FF1225FE20092FC225
:10182600A99000B97401F04488F5BC3009FD900018
:10183600B5E0FAA3E0FB9000767403F0A37410F011
:101846007D027F34122326E49000B9F0D2A9C3901A
:10185600006FE0940A90006EE09400500302194E67
:10186600E4F0A3F090008AE0FEA3E0FF90006CEEA7
:10187600F0A3EFF0900067E02FFF900066E03EC314
:1018860013FEEF13FF90006CEEF0A3EFF09000B59F
:10189600E0FCA3E0FDE41215427B707ACE79B078C5
:1018A6003F1213BE7B797AE9793F78421212CD1244
:1018B600157B900064EEF0A3EFF090006CE0FEA3C1
:1018C600E0FF7C007D03121642EEC313FAEF13FB12
:1018D6009000767404F0A37410F00D7F3412232662
:1018E600900064E0FEA3E0FF90006CE0FCA3E0FD46
:1018F6001219B29000B5E0FEA3E0FF90006CE0FC88
:10190600A3E0FDE4FBFA121D3D900064E0FEA3E0B7
:10191600FFC390006DE09FFF90006CE09EFE122CCE
:1019260015D3EF9405EE6480948050028001C34085
:1019360004B2CD8004B2A7B2A790008AE0FFA3E06C
:10194600900066CFF0A3EFF0900068E014602414D6
:101956006025146024146031146045240560030278
:10196600179F200507D205122C39800BC2051200DD
:10197600068004B2CD8020801ED206122B907B08F2
:101986007D027F6E122474800EC206122B907B0994
:101996007D027F6E1224749000687406F002179F11
:0C19A6001200269000687406F002179FE3
:10290600414456616C3A0053706565643A20202054
:102916002020722F7300202020202031322F3239C0
:0E2926002031303A3432004095B6C7D1EAFF76
:10267A00C100C102C101C1834100876441008C00CD
:10268A00410084004200910000420088000042009C
:0B269A0085000041008100410082002B
:08276300C296C2957FC87E00FA
:08276B0090007DEEF0A3EFF0F9
:10277300E4A3F0A3F090007FF0A3F090007DE0FECF
:10278300A3E0FFC3900080E09FEE6480F890007F99
:10279300E06480985013120016900080E004F070FB
:0927A300DA90007FE004F080D21E
:0127AC00220A
:0B0016000000007F0B7EBEDEFEDFFC62
:0100210022BC
:10258C00122A077B02E4FD7F0C1224747B03E4FD0A
:10259C007F1E1224747B04E4FD7F301224747B05AF
:1025AC00E4FD7F421224747B06E4FD7F54122474F4
:1025BC007B07E4FD7F661224747BFF7A29790690F1
:1025CC0000777430F07D03E4FF1225FE7BFF7A293F
:1025DC00790D9000777430F07D057F011225FE7B1C
:1025EC00FF7A29791C900077740CF07D07E4FF02C8
:0225FC0025FEBA
:102B7B00438E805389F0758ACD758CD4D2B9C28DB2
:052B8B00D28CD2A9224A
:03000B0002226569
:10226500C0E0C0F0C083C082C0D075D0109000928D
:10227500E004F07006900091E004F0C3900092E055
:102285009402900091E09400500302231BD202E4D3
:10229500F0A3F0900089E004F07006900088E00457
:1022A500F075BCE8900088E0FEA3E0FFC39464EEFF
:1022B50094004005C20975BCE9C3EF94FAEE940099
:1022C5004054B201900088E4F0A3F0900086E00449
:1022D500F07006900085E004F0C3900086E094025B
:1022E500900085E09400402E90008FE0FEA3E0FF73
:1022F50090008EE02FFF90008DE03EFE7C007D1467
:1023050012165490008AEEF0A3EFF090008DE4F0E1
:10231500A3F0A3F0A3F0D0D0D082D083D0F0D0E04A
:012325003285
:0F2BEA00C288D2A8C28AD2AAC2B8C2BAD2AF22B7
:03000300022AC707
:102AC700C0E0C083C08290008EE004F070069000E2
:0B2AD7008DE004F0D082D083D0E0320C
:03001300022AE2DC
:102AE200C0E0C083C082900090E004F070069000C5
:0B2AF2008FE004F0D082D083D0E032EF
:10296100900084E025E0FFA20BE4334FF07006A253
:102971000B92038015900084E0B4FF0EA203300B8C
:0C29810001B35006A20B9203D322C32224
:10219A0090292DE493FDEFD39D5004E4FE8076EF61
:1021AA00D39D400F90292EE493FDEFD39D50047EDA
:1021BA0001806290292EE493FDEFD39D400DA3E4A4
:1021CA0093FDEFD39D50047E02804A90292FE49319
:1021DA00FDEFD39D400DA3E493FDEFD39D50047E04
:1021EA00038032902930E493FDEFD39D400DA3E4A0
:1021FA0093FDEFD39D50047E04801A902931E49315
:10220A00FDEFD39D400DA3E493FDEFD39D50047ED3
:10221A000580027E06EEB406028012900082E0B5C6
:10222A00060B900081E025E04401F08005E490006F
:10223A0081F0900082EEF0900081E0FFB4FF0590FB
:10224A000083EEF0EF7011900083E0FF64066008EF
:0A225A00AE077406F0AF06227F06FF
:012264002257
:061EA5009000AE121719B7
:101EAB00E49000B2F0A3F0A3F07407F09000B4E05C
:101EBB00F9C3648094805003021F7D9000AEA3A3EE
:101ECB00A3E0FF9000B4E0FEFD3395E0FC9000B280
:101EDB00E0FAA3E02DF582EA3CF583EFF0EEFF3359
:101EEB0095E0FE9000B2E0FCA3E02FF582EC3EF50E
:101EFB0083E0C4540FFDEF24FFFFEE34FFFE900090
:101F0B00B2E0FAA3E0FB2FF582EA3EF583EDF0E9B0
:101F1B00FF3395E0FEEB2FF582EA3EF583C083C0DD
:101F2B0082E0FF9000B4E0FD3395E0FCED24FFFD73
:101F3B00EC34FFFC9000B2E0FAA3E02DF582EA3C12
:101F4B00F583E0C454F0FEC3EF9ED082D083F090B3
:101F5B0000AEE0FCA3E0FDA3E0FEA3E0FF780812D7
:101F6B0017059000AE1217199000B4E024FEF00292
:101F7B001EB7E49000B4F09000B4E0FFD3648094FB
:101F8B00875045EF3395E0FE9000B2E0FCA3E0FDF7
:101F9B002FF582EC3EF583E0D39409500EED2FF52F
:101FAB0082EC3EF583E02430F080159000B4E0FF26
:101FBB003395E0FEED2FF582EC3EF583E02437F010
:101FCB009000B4E004F080AF9000B2E0FEA3E0FF1D
:101FDB002408F582E43EF583E4F0AA06A9077B0109
:011FEB0022D3
:10270F007B007A007900E4FF121B797B007A007955
:10271F00007F01121B797B007A0079007F02121B68
:10272F00797B007A0079007F03121B797B007A0096
:10273F0079007F04121B797B007A0079007F0512E4
:10274F001B797B007A0079027F05121B797F017E4E
:04275F000002276BE2
:072C3200C296C295C2972271
:072C3900D297C296D295224A
:05000600C296C2952224
:102B9000D297300608122763D296C2952212276375
:052BA000C296D295224F
:03002600D297224C
:032C4700D29722FF
:101B7900EFD3940540037F01221215FCFED3940193
:101B890040037F0222EF7041EE700B9000011216A4
:101B990015F4529352941215FCB4020B90000112E1
:101BA90016154293F452941215FCFEB4030A9000E0
:101BB9000112161542934294EEB4010D90000112E0
:101BC9001615FEF45293EE4294EF64017043121518
:101BD900FCFE700B900001121615F452915292EE10
:101BE900B4020B9000011216154291F4529212158B
:101BF900FCB4030A90000112161542914292121583
:101C0900FCB4010D900001121615FEF45291EE423A
:101C190092EF640270431215FCFE700B90000112E2
:101C29001615F452955296EEB4020B900001121655
:101C3900154295F452961215FCB4030A900001124C
:101C49001615429542961215FCB4010D9000011229
:101C59001615FEF45295EE4296EF64037043121581
:101C6900FCFE700B900001121615F452B152B2EE3F
:101C7900B4020B90000112161542B1F452B21215BA
:101C8900FCB4030A90000112161542B142B21215B2
:101C9900FCB4010D900001121615FEF452B1EE428A
:101CA900B2EF640470431215FCFE700B9000011230
:101CB9001615F452B352B4EEB4020B900001121689
:101CC9001542B3F452B41215FCB4030A9000011280
:101CD900161542B342B41215FCB4010D900001125D
:101CE9001615FEF452B3EE42B4EF640570431215B3
:101CF900FCFF700B900001121615F452C952CAEF7D
:101D0900B4020B90000112161542C9F452CA1215F9
:101D1900FCB4030A90000112161542C942CA1215F1
:101D2900FCB4010D900001121615FFF452C9EF42DF
:041D3900CA7F00223B
:102B4D00759850438E01438E0475D7E875D6FF43B3
:072B5D008E10D2ACD2AF22B2
:03002300022A2D81
:102A2D00C0E0C083C08230980AC2989000C1E59979
:102A3D00F0D207309904C299C208D082D083D0E079
:012A4D003256
:082C2A002008FDD2088F992259
:1028A2009000BAEBF0A3EAF0A3E9F09000BAE0FBE3
:1028B200A3E0FAA3E0F91215FC60179000BAA3E4B2
:1028C20075F0011216A9A9F0FA1215FCFF122C2AB2
:0328D20080D92288
:1026A500C10AC1094200B700004200B5000041005F
:0226B500B9006A
:102B3300759D03E4F5BDD2BD9000B9E044E8F5BC52
:0A2B430043A8A07F027E0002276B6A
:03002B0002283A6E
:10283A00C0E0C083C082C0D075D01875BC009000BB
:10284A00B9E0AFBD700B9000B7F0A3EFF0D20A80E9
:10285A000A9000B5E4F0A3EFF0D209D0D0D082D02C
:04286A0083D0E03205
:102AFD00C286D2870000D28600000000000000C20E
:0B2B0D008700000000000000C28622CC
:102B1800C286C2870000D28600000000000000D2F2
:0B2B28008700000000000000C28622B1
:102BA500C286C2870000D28600000000000000C275
:022BB500862276
:102A4E00E4FFC286D2870000D286000000003087E5
:102A5E000A0FEFD3946440F6022B180000C286D3FF
:012A6E002245
:102BB700C286D2870000D28600000000000000C253
:022BC700862264
:102AAB00750808C286EF25E0FF92870000D28600EA
:0B2ABB00000000000000D508EAC28601
:012AC60022ED
:1028D500E4FF7E08C286D2870000AD061EED6020AB
:1028E500D28600000000EF25E0FFA287E4334FFF0A
:1028F500C28600000000000000000000000080DA31
:0129050022AF
:0226B800AE076B
:1026BA00122AFD7F54122AAB122A4E5044AF061238
:1026CA002AAB122A4E40028038122AFD7F55122A5E
:1026DA00AB122A4E400280291228D5EF9000BDF095
:1026EA00A3E4F0122BA51228D59000BDE0F0A3E0D8
:1026FA004FF0122BB7122B189000BDE0FEA3E0FF9B
:04270A0022E4FEFFC8
:01270E0022A8
:0E27AD00900078EBF0A3EAF0A3E9F0A3EDF0C2
:1027BB00E4A3F090007BE0FFA3E0FEC39F502B90BF
:1027CB000078E0FBA3E0FAA3E0F975F002EEA4F5C4
:1027DB008285F0831216BFFF122C2A7F027E001215
:0A27EB00276B90007CE004F080C929
:0127F50022C1
:101D3D00900072EEF0A3EFF0A3ECF0A3EDF0A3EAA8
:041D4D00F0A3EBF024
:101D5100E4FCFF0C25E02400F582E43400F583E483
:101D6100F0A374AAF00C740125E02400F582E43498
:101D710000F583E4F0A37405F00C740225E024005F
:101D8100F582E43400F583E4F0A374AFF00C74033E
:101D910025E02400F582E43400F583E4F0A374F136
:101DA100F00C740425E02400F582E43400F583E4AA
:101DB100F0A3F0900072E0FB3395E0FA0C74052576
:101DC100E02400F582E43400F583EAF0A3EBF0901F
:101DD1000073E0FB3395E0FA0C740625E02400F56E
:101DE10082E43400F583EAF0A3EBF0900074E0FBA9
:101DF1003395E0FA0C740725E02400F582E4340001
:101E0100F583EAF0A3EBF0900075E0FB3395E0FA7F
:101E11000C740825E02400F582E43400F583EAF02F
:101E2100A3EBF0900076E0FB3395E0FA0C74092502
:101E3100E02400F582E43400F583EAF0A3EBF090AE
:101E41000077E0FB3395E0FA0C740A25E02400F5F5
:101E510082E43400F583EAF0A3EBF0EC24FBFAE42E
:101E610034FF900008F0A3CAF0E4FEEEC39C5013C7
:101E7100EE25E02400F582E43400F583A3E02FFF92
:101E81000E80E8AD040CED25E02400F582E4340079
:101E9100F583E4F0A3EFF07B017A007900AF04ADA4
:041EA100070227AD60
:10002E000000000000000000002F0000000007008C
:10003E00070000147F147F1400242A7F2A12006206
:10004E0064081323003649552250000005030000B2
:10005E0000001C224100000041221C000014083E3A
:10006E0008140008083E0808000000A06000000800
:10007E000808080800006060000000201008040254
:10008E00003E5149453E0000427F40000042615112
:10009E004946002141454B31001814127F100027AC
:1000AE0045454539003C4A4949300001710905036F
:1000BE0000364949493600064949291E00003636A0
:1000CE000000000056360000000814224100001403
:1000DE0014141414000041221408000201510906E0
:1000EE0000324959513E007C1211127C007F494961
:1000FE004936003E41414122007F4141221C007F92
:10010E0049494941007F09090901003E4149497A9F
:10011E00007F0808087F0000417F41000020404119
:10012E003F01007F08142241007F40404040007F85
:10013E00020C027F007F0408107F003E4141413EC9
:10014E00007F09090906003E4151215E007F091911
:10015E0029460046494949310001017F0101003F0E
:10016E004040403F001F2040201F003F4038403F8E
:10017E0000631408146300070870080700615149F2
:10018E00454300007F41410000552A552A55000085
:10019E0041417F0000040201020400404040404003
:1001AE00000001020400002054545478007F48449B
:1001BE00443800384444442000384444487F0038D2
:1001CE005454541800087E0901020018A4A4A47CFB
:1001DE00007F080404780000447D400000408084C5
:1001EE007D00007F102844000000417F4000007C0D
:1001FE0004180478007C0804047800384444443819
:10020E0000FC242424180018242418FC007C080464
:10021E00040800485454542000043F444020003C3D
:10022E004040207C001C2040201C003C4030403CC4
:10023E00004428102844001CA0A0A07C0044645454
:10024E004C44141414141414000000000000000098
:10025E000000000000000000000000F80000000098
:10026E00000000333000000000100C06100C0600D9
:10027E00000000000000000040C07840C078400040
:10028E00043F04043F040400007088FC08300000A2
:10029E00001820FF211E0000F008F000E0180000FA
:1002AE0000211C031E211E0000F0088870000000B3
:1002BE001E2123241927211010160E000000000005
:1002CE000000000000000000000000E01804020022
:1002DE00000000071820400000020418E000000093
:1002EE000040201807000000404080F08040400091
:1002FE000202010F01020200000000F000000000E7
:10030E000101011F010101000000000000000000BA
:10031E0080B070000000000000000000000000002F
:10032E0000010101010101010000000000000000B8
:10033E000030300000000000000000008060180453
:10034E00006018060100000000E010080810E00030
:10035E00000F102020100F00001010F800000000F9
:10036E000020203F20200000007008080888700040
:10037E0000302824222130000030088888483000C0
:10038E000018202020110E000000C02010F80000E0
:10039E0000070424243F240000F808888808080079
:1003AE000019212020110E0000E01088881800008E
:1003BE00000F112020110E0000380808C838080060
:1003CE000000003F000000000070880808887000E0
:1003DE00001C222121221C0000E010080810E00061
:1003EE000000312222110F00000000C0C0000000EA
:1003FE00000000303000000000000080000000000F
:10040E000000806000000000000080402010080006
:10041E0000010204081020004040404040404000CF
:10042E0004040404040404000008102040800000AA
:10043E000020100804020100007048080808F000AF
:10044E000000003036010000C030C828E810E0007F
:10045E000718272423140B000000C038E00000000A
:10046E00203C23020227382008F888888870000074
:10047E00203F202020110E00C03008080808380048
:10048E00071820202010080008F808080810E000BF
:10049E00203F202020100F0008F88888E808100060
:1004AE00203F20202320180008F88888E808100034
:1004BE00203F200003000000C0300808083800006C
:1004CE0007182020221E020008F808000008F8086D
:1004DE00203F210101213F20000808F808080000F4
:1004EE000020203F2020000000000808F808080027
:1004FE00C08080807F00000008F888C0281808009F
:10050E00203F20012638200008F8080000000000D7
:10051E00203F20202020300008F8F800F8F80800CE
:10052E00203F003F003F200008F830C00008F808C8
:10053E00203F200007183F00E01008080810E000D8
:10054E000F10202020100F0008F808080808F000EF
:10055E00203F210101010000E01008080810E00012
:10056E000F18242438504F0008F8888888887000A7
:10057E00203F2000030C3020007088080808380047
:10058E000038202121221C00180808F8080818003D
:10059E000000203F2000000008F808000008F808BE
:1005AE00001F202020201F000878880000C838086F
:1005BE00000007380E010000F80800F80008F800E7
:1005CE00033C0700073C0300081868808068180881
:1005DE0020302C03032C30200838C800C8380800FF
:1005EE000000203F2000000010080808C83808004E
:1005FE002038262120201800000000FE02020200F2
:10060E000000007F40404000000C30C000000000A1
:10061E00000000010638C00000020202FE000000C9
:10062E00004040407F00000000000402020204006F
:10063E0000000000000000000000000000000000AC
:10064E008080808080808080000202040000000094
:10065E00000000000000000000008080808000008C
:10066E000019242222223F2008F80080800000007A
:10067E00003F112020110E0000000080808000003D
:10068E00000E112020201100000000808088F8004C
:10069E00000E112020103F2000008080808000007E
:1006AE00001F222222221300008080F088888818E2
:1006BE000020203F202000000000808080808000ED
:1006CE00006B94949493600008F800808080000082
:1006DE00203F210000203F2000809898000000005D
:1006EE000020203F2020000000000080989800008D
:1006FE0000C08080807F000008F8000080808000AD
:10070E00203F24022D302000000808F800000000D1
:10071E000020203F2020000080808080808080008C
:10072E00203F20003F20003F80800080808000001E
:10073E00203F210000203F200000808080800000AC
:10074E00001F202020201F008080008080000000DD
:10075E0080FFA12020110E0000000080808080000C
:10076E00000E112020A0FF808080800080808000FD
:10077E0020203F212000010000008080808080002A
:10078E000033242424241900008080E0808000009F
:10079E000000001F202000008080000000808000EC
:1007AE00001F202020103F2080808000008080804D
:1007BE0000010E30080601008080008000808080DD
:1007CE000F300C030C300F00008080008080800002
:1007DE000020312E0E31200080808000008080802D
:1007EE0080818E70180601000080808080808000DD
:1007FE000021302C2221300000000000807C0202FB
:10080E0000000000003F404000000000FF0000001C
:10081E0000000000FF0000000002027C80000000CB
:10082E000040403F000000000006010102020404E7
:10083E000000000000000000000404F49494949F53
:10084E00949494F4040400000000000000000000E2
:10085E0000000000000000004040407F4A4A4A4A23
:10086E004A4A4A7F4040400000000000000000005D
:10087E0000000000000000001060028C0044645470
:10088E004D46445464C40400000000000000000003
:10089E00000000000000000004047E0180403E00C5
:1008AE0000FE00007E80E00000000000000000005E
:1008BE0000000000000000000000F888888888FF13
:1008CE0088888888F8000000000000000000000002
:1008DE00000000000000000000001F080808087F4C
:1008EE00888888889F80F0000000000000000000CB
:1008FE0000000000000000001010D0FF901000FE5D
:10090E00020202FE000000000000000000000000D5
:10091E000000000000000000040300FF0083601FC1
:10092E000000003F40407800000000000000000082
:10093E000000000000000000101010FF90209848EA
:10094E0028090E2848A8180000000000000000002A
:10095E0000000000000000000242817F0040404283
:10096E0042427E4242424000000000000000000071
:10097E00000000000000000040504E4848FF48486C
:10098E004840F80000FF00000000000000000000DA
:10099E00000000000000000000003E0202FF1222D4
:1009AE001E000F40807F00000000000000000000CD
:1009BE000000000000000000000022322AA6A26201
:1009CE00211109810100000000000000000000005C
:1009DE000000000000000000004222130B42827E45
:1009EE0002020A1223460000000000000000000070
:1009FE0000000000000000002030AC63300088C80A
:100A0E00A8998E88A8C88800000000000000000089
:100A1E000000000000000000226722121280403009
:100A2E000F00003F40407100000000000000000079
:100A3E000000000000000000000202C2020202FEDE
:100A4E00828282828202000000000000000000000C
:100A5E0000000000000000004040407F4040407F0A
:100A6E0040404040404040000000000000000000B8
:100A7E0000000000000000000000FC2424E42424F8
:100A8E00222222A3620000000000000000000000ED
:100A9E00000000000000000040308F804040231412
:100AAE000814224140808000000000000000000079
:100ABE0000000000000000000003050911FF11896D
:100ACE0005C300E000F000F8000000000000004444
:100ADE0028FF11AA440000000000000000000000E2
:100AEE0000000000000000000000000000000000F8
:100AFE0000000000000000000000000000000000E8
:100B0E0000000000000000000000000000000000D7
:100B1E000000830138448292927401830000000029
:100B2E000000007C44FF017D7D7D017D7D7D7D018A
:100B3E007D7D7D7D7D01FF00000000000001000134
:100B4E000001000100010001000000000000000093
:100B5E000001010000000000000000000000000085
:100B6E000000000000000000000000000000000077
:100B7E000000000000000000000000000000000067
:100B8E000000000000000000000000000000000057
:100B9E000000010100000000000001010000000043
:100BAE00000000000001010101010101010101012C
:100BBE000101010101010100000000000000000020
:100BCE000000000000000000000000000000000017
:100BDE00000000003F3F0303F31311111111111117
:100BEE0001F1116181010101816111F10101010127
:100BFE004141F10101010101C1211111111121C167
:100C0E00010101014141F101010101010101010156
:100C1E00011111111111D33303033F3F00000000E6
:100C2E0000000000000000000000000000000000B6
:100C3E0000000000000000000000000000000000A6
:100C4E000000000000000000000000000000000096
:100C5E0000000000E0E000007F0101010101010041
:100C6E00007F0000010618060100007F0000000052
:100C7E0040407F40400000001F2040404040201F69
:100C8E000000000040407F40400000000060000077
:100C9E00000040300C0300000000E0E00000000007
:100CAE000000000000000000000000000000000036
:100CBE000000000000000000000000000000000026
:100CCE000000000000000000000000000000000016
:100CDE0000000000070706060606040404844444C8
:100CEE0044840404844444448404040484C40404F6
:100CFE0004048444444484040404040484444444A6
:100D0E008404040404048444444484040484444455
:100D1E0044840404040406060606070700000000C7
:100D2E0000000000000000000000000000000000B5
:100D3E0000000000000000000000000000000000A5
:100D4E000000000000000000000000000000000095
:100D5E000000000000000000000000000010181449
:100D6E00121100000F1010100F000000101F1000C5
:100D7E000000081012120D00001800000D121212C1
:100D8E000D00001800001018141211000010181495
:100D9E001211000000000000000000000000000022
:100DAE000000000000000000000000000000000035
:100DBE000000000000000000000000000000000025
:100DCE000000000000000000000000000000000015
:100DDE000000000000000000000000000000000005
:100DEE0000000000000000000000000000000000F5
:100DFE0000000000808080808080808000000000E5
:100E0E0000000000000000000000000000000000D4
:100E1E0000000000000000000000000000000000C4
:100E2E0000000000000000000000000000000000B4
:100E3E000000000000000000007F030C300C037F58
:100E4E0000003854545800007C04047800003C40E4
:100E5E00407C0000000000000000000000000000C8
:100E6E000000000000000000000000000000000074
:100E7E0000000000FFAAAAAA280800FF0000000038
:100E8E000000000000000000000000000000000054
:100E9E000000000000000000000000000000000044
:100EAE00007F030C300C037F0000264949493200B5
:100EBE00007F020408107F000003050911FF11894D
:100ECE0005C300E000F000F8000000000000004440
:100EDE0028FF11AA440000000000000000000000DE
:100EEE0000000000000000000000000000000000F4
:100EFE0000000000000000000000000000000000E4
:100F0E0000000000000000000000000000000000D3
:100F1E000000830138448292927401830000000025
:100F2E000000007C44FF017D7D7D7D017D7D7D7D0A
:100F3E00017D7D7D7D01FF000000000000010001AC
:100F4E00000100010001000100000000000000008F
:100F5E000001010000000000000000000000000081
:100F6E000000000000000000000000000000000073
:100F7E000000000000000000000000000000000063
:100F8E000000000000000000000000000000000053
:100F9E00000001010000000000000101000000003F
:100FAE000000000000010101010101010101010128
:100FBE00010101010101010000000000000000001C
:100FCE000000000000000000000000000000000013
:100FDE0000000000000000F80808080808080800D3
:100FEE00F8186080000000806018F80000002020D3
:100FFE00F8000000000000E0100808080810E000EB
:10100E0000002020F800000000000000000000009A
:10101E000008080808088868180000000000000092
:10102E0000000000000000000000000000000000B2
:10103E0000000000000000000000000000000000A2
:10104E000000000000000000000000000000000092
:10105E00000000000000007F0101010101010000FD
:10106E007F0000010618060100007F0000004040CE
:10107E007F4040000000001F2040404040201F00E5
:10108E00000040407F404000000000006000000073
:10109E0000000060180601000000000000000000C3
:1010AE000000000000000000000000000000000032
:1010BE000000000000000000000000000000000022
:1010CE000000000000000000000000000000000012
:1010DE000000000000000000000000000040202082
:1010EE0020C00000E0202020E000000040E00000D2
:1010FE00000060202020E00000000000E020202002
:10110E00E0000000000040202020C0000040202011
:10111E0020C00000000000000000000000000000E1
:10112E0000000000000000000000000000000000B1
:10113E0000000000000000000000000000000000A1
:10114E000000000000000000000000000000000091
:10115E00000000000000000000000000000C0A0A61
:10116E00090C00000F0808080F000000080F080007
:10117E0000000C0809090E00000C00000F090909F7
:10118E000F00000C00000C0A0A090C00000C0A0AE1
:10119E00090C00000000000000000000000000002C
:1011AE000000000000000000000000000000000031
:1011BE000000000000000000000000000000000021
:1011CE000000000000000000000000000000000011
:1011DE000000000000000000000000000000000001
:1011EE0000000000000000000000000000000000F1
:1011FE0000000000808080808080808000000000E1
:10120E0000000000000000000000000000000000D0
:10121E0000000000000000000000000000000000C0
:10122E0000000000000000000000000000000000B0
:10123E000000000000000000007F030C300C037F54
:10124E0000003854545800007C04047800003C40E0
:10125E00407C0000000000000000000000000000C4
:10126E000000000000000000000000000000000070
:10127E0000000000FFAAAAAA280800FF0000000034
:10128E000000000000000000000000000000000050
:10129E000000000000000000000000000000000040
:1012AE00007F030C300C037F0000264949493200B1
:0812BE00007F020408107F000C
:092C2100D2C5D2C4C2C4C2C5224E
:072C4000D2C5C2C4D2C422B8
:0B2BDA001229C0122BE5AF041229C025
:052BE500D2C5C2C522AB
:0729B900AC07122C217F780E
:1029C000C2C5E4FEAD07ED5480B48004D2C48002D9
:0F29D000C2C4EF25E0FFD2C5C2C50EEEB408E5C4
:0129DF0022D5
:0E2BF9001229B9122BE5E4FF122BDA022C4050
:0E2C07001229B9122BE57F40122BDA022C4065
:10298D00E924B0FFE433FEE4FDFC1229A8E4FDFCCC
:0B299D00FFFE1229A87F10E4FDFCFEE5
:1029A800AB07AA06ED4C6003022C07AF03122BF904
:0129B80022FC
:052934009000BFEFF070
:10293900E4F912298DE49000C0F09000BFE0FF7E19
:10294900007D017C001229A8A3E004F0E0C3948073
:0729590040E809E9B408DBC6
:012960002254
:08286E0090007BE0FFA3E0FDF8
:10287600A907ED24B0FFE433FEE4FDFC1229A8E924
:1028860054F0C4540F7E004410FFE4FDFC1229A846
:0C289600E9540FFF7E00E4FDFC0229A8BD
:102B64007F8D1229A4E4FDFC7F14FE1229A8E4FD44
:072B7400FC7FAFFE0229A85F
:102BC900E4FDFC7F8D12299EE4FDFC7FAEFE022907
:012BD900A853
:102A0700E4F912298DE4900072F07D017C00E4FF67
:102A1700FE1229A8900072E004F0E0C3948040EA17
:052A270009E9B408DD1F
:012A2C002287
:1029E000E4F912298DE49000C2F07D017C007F01A2
:1029F0007E001229A89000C2E004F0E0C394804059
:062A0000E909E9B408DC5D
:012A060022AD
:0B20CC0090007CEDF090007BEFF0FD39
:1020D700E490007FF0F9EB24E0F0EDD3947F400A21
:1020E700E490007BF0A3E02402F090007EE064100F
:1020F700706E12286EE4F990007FE075F010A42945
:10210700F582E435F0F583E5822456F582E58334DC
:1021170002F583E493FF7E007D017C001229A80964
:10212700E9B408D390007BE0FFA3E004FD12287612
:10213700E4F990007FE075F010A429F582E435F00A
:10214700F583E582245EF582E5833402F583E49323
:10215700FF7E007D017C001229A809E9B408D3227B
:1021670012286EE4F990007FE075F006A4242EF59E
:1021770082E5F03400F583E58229F582E43583F5BD
:1021870083E493FF7E007D017C001229A809E9B44E
:0221970006D36D
:012199002223
:072A6F0090007BEFF0A905C8
:102A76007F017E00AD0119ED600C90007BE0FD7CCE
:062A86000012164280EE72
:012A8C002227
:0E232600900072EFF0A3EDF0A3EAF0A3EBF04D
:10233400E490007AF0900078F0900076E0FF90004E
:1023440078E0FEC39F40030223E0C3EF9E14FD7FA9
:102354000A122A6F900074E0FCA3E0FDCFCDCFCE2B
:10236400CCCE1216547C007D0A121654900079EDDE
:10237400F0A3E07036900076E014FF900078E0FE61
:10238400C39F5027A3E0701D900077E0FCC3138E19
:10239400F0A4FF900072E02FFFA3E0FD90007EEC1C
:1023A400F07B20802B90007A7401F0900077E0FE9F
:1023B400C313FFA3E0FDEF8DF0A4FF900072E02FA4
:1023C400FFA3E0FD900079E02430FB90007EEEF066
:0C23D4001220CC900078E004F002233DC1
:0123E00022DA
:1025FE00900072EFF0A3EDF0A3EBF0A3EAF0A3E9E5
:01260E00F0DB
:10260F00E4900078F0900074E0FBA3E0FAA3E0F907
:10261F00900078E0F582758300121615FB602F90FD
:10262F000072E0FFA3E0FD900077E090007EF012D3
:10263F0020CC900072E02408F0E0D394784007E4B7
:0E264F00F0A3E02402F0900078E004F080B7E1
:01265D00225A
:0D247400900074EBF0900072EFF0A3EDF01B
:10248100E4900075F0122876E4F9900074E075F09C
:1024910040A42446F582E5F03408F583E58229F568
:1024A10082E43583F583E493FF7E007D017C001295
:1024B10029A8900075E004F009E9B410CD900072EC
:1024C100E0FFA3E004FD122876E4F9900074E075C2
:1024D100F040A42466F582E5F03408F583E582290D
:1024E100F582E43583F583E493FF7E007D017C0072
:0E24F1001229A8900075E004F009E9B410CD9E
:0124FF0022BA
:0A23E1009000A3EFF09000A5EBF0D0
:1023EB00E49000AAF0A3F09000A6E0FF5407700859
:1023FB00EF131313541F800A9000A6E0131313540A
:10240B001F049000ADF09000ADEDF09000A6E0FF42
:10241B009000ADE0FDC39F504F9000A3E0FF12284A
:10242B0076E09000ACF09000A5E0FF9000ACE0C32C
:10243B009F502D9000A7E0FBA3E0FAA3E0F9A3E4E3
:10244B0075F0011216A985F082F583121615FF7E21
:10245B00007D017C001229A89000ACE004F080C63E
:08246B009000ADE004F080A335
:012473002246
:101FEC00E4FDFC7FAEFE122997E4FDFC7F40FE125F
:101FFC0029A8E4FDFC7FB0FE1229A8E4FDFC7F813A
:10200C00FE1229A8E4FDFC7FFFFE1229A8E4FDFCCA
:10201C007FA1FE1229A8E4FDFC7FA6FE1229A8E4EC
:10202C00FDFC7FA8FE1229A8E4FDFC7F3FFE1229CF
:10203C00A8E4FDFC7FC8FE1229A8E4FDFC7FD3FEBA
:10204C001229A8E4FDFCFFFE1229A8E4FDFC7FD5B3
:10205C00FE1229A8E4FDFC7F80FE1229A8E4FDFCF9
:10206C007FD8FE1229A8E4FDFC7F05FE1229A8E406
:10207C00FDFC7FD9FE1229A8E4FDFC7FF1FE12299C
:10208C00A8E4FDFC7FDAFE1229A8E4FDFC7F12FE19
:10209C001229A8E4FDFC7FDBFE1229A8E4FDFC7FDD
:1020AC0030FE1229A8E4FDFC7F8DFE1229A8E4FD68
:1020BC00FC7F14FE1229A8E4FDFC7FAFFE0229A8C8
:102A8D00E5A254CF4420F5A2E4F5D8F5E9F5F975A2
:0E2A9D00D902F5F28FEA8FFA75DA42D2DE2204
:05000E008FEA8FFA22C9
:1012C6000215E7E86480F8E933E83360110460F05A
:1012D600ED33EC337009E8FCE9FDEAFEEBFF22048E
:1012E60060DED3EB9FEA9EE99DE8C2E78CF0C2F789
:1012F60095F0400CE8CCF8E9CDF9EACEFAEBCFFB55
:101306001215B285D0F05804700320D5B3E80470E6
:10131600075002B2D50215F192D5EC0460F7E4CC81
:10132600C0E0C398F8603B94186008400DD0E0FB1D
:101336000215C9E4FBFAC9FC8028E830E406E4C9D2
:10134600FBE4CAFCE830E305E4C9CACBFCE8540771
:101356006010F8C3E913F9EA13FAEB13FBEC13FC7C
:10136600D8F130F52FC3E49CFCEF9BFFEE9AFEED1F
:1013760099FDD0E0FBEF4E4D4C701222DB030215B7
:10138600EEEC2CFCEF33FFEE33FEED33FDED30E7F4
:10139600EB0215C9EF2BFFEE3AFEED39FDD0E0FB6F
:1013A60050130BBB00030215F1ED13FDEE13FEEF18
:0813B60013FFEC13FC0215C942
:1013BE00EC4D6011E8497017ED33EC3304600DE429
:1013CE00FCFFFEFD22E933E8330470F80215E71244
:1013DE0015B258046009E4CC248150062850090245
:1013EE0015F12840030215EEC0E0EB4A7044B980B7
:1013FE0006D0E0FB0215DDEF4E701CBD8008EBFF42
:10140E00EAFEE9FD80EBE98DF0A4FEE5F00214A7FB
:10141E00E9CDF9EAFEEBFFEF89F0A4FCE5F0CE8909
:10142E00F0A42EFFE435F0CD89F0A42DFEE435F0C6
:10143E008067EF4E7005BD80D780C3EF8BF0A4ACF4
:10144E00F0EE8BF0A42CFCE435F0F8EF8AF0A42C2F
:10145E00E5F038FCE433CB8DF0A42CFCE5F03BF842
:10146E00EE8AF0A42CFCE5F038F8E433CF89F0A432
:10147E002CFCE5F038CF3400CE89F0A42FFFE5F038
:10148E003EFEE433C98DF0A42EFEE5F039CD8AF090
:10149E00A42FFFE5F03EFEE43DFD33D0E0FB500708
:1014AE000BBB000F0215F1EC2CFCEF33FFEE33FEFD
:0614BE00ED33FD0215C92B
:1014C40074F8CC6480CCC86480C8F58204604FC3CF
:1014D400EB9FF5F0EA9E42F0E99D42F0E89C45F06E
:1014E400603C501DE5825FFFE582D313CB5BCBF4F8
:1014F4002B5582FB50280ABA002409B90020088021
:101504001DE5825BFBE582D313CF5FCFF4C3132FBA
:101514005582FF50090EBE00050DBD00010CC3EB42
:101524009FF5F0EA9E42F0E99D42F0E89C45F060A8
:0915340007CC4820E701B3EC22CA
:10153D0075F020800E75F010800575F0087D007E29
:10154D00007F003392D530D5031216F7EC334010DF
:10155D00EF33FFEE33FEED33FDEC33FCD5F0ED2232
:0E156D00E5F0247EA2D513CC92E7CDCEFF226E
:10157B00EDD2E7CD33EC3392D524814006E4FFFE68
:10158B00FDFC22FCE4CFCECDCC24E0501174FF80C7
:10159B00EDC3CC13CCCD13CDCE13CECF13CF047064
:0715AB00F030D5DE0216F757
:1015B200E9D2E7C933E833F892D5EDD2E7CD33EC7F
:0715C20033FC5002B2D522F8
:1015C900EC30E7100FBF000C0EBE00080DBD000483
:1015D9000BEB6014A2D5EB13FCED92E7FD2274FF2F
:1015E900FCFDFEFF22E480F8A2D574FF13FC7D8088
:0315F900E480EF9C
:03000000022500D6
:0C250000787FE4F6D8FD758121022547A4
:1015FC00BB010689828A83E0225002E722BBFE02ED
:09160C00E32289828A83E493221F
:10161500BB010CE58229F582E5833AF583E022508A
:1016250006E92582F8E622BBFE06E92582F8E222D4
:0D163500E58229F582E5833AF583E49322EE
:10164200EF8DF0A4A8F0CF8CF0A428CE8DF0A42EBC
:02165200FE2276
:10165400BC000BBE0029EF8DF084FFADF022E4CC7A
:10166400F875F008EF2FFFEE33FEEC33FCEE9DEC43
:10167400984005FCEE9DFE0FD5F0E9E4CEFD22ED89
:10168400F8F5F0EE8420D21CFEADF075F008EF2FD3
:10169400FFED33FD4007985006D5F0F222C398FDC4
:0516A4000FD5F0EA2261
:1016A900A3F8E0C5F025F0F0E582158270021583F4
:0616B900E0C838F0E82251
:1016BF00BB0110E58229F582E5833AF583E0F5F069
:1016CF00A3E0225009E92582F886F008E622BBFE46
:1016DF000AE92582F8E2F5F008E222E5832AF5838C
:0816EF00E993F5F0A3E9932251
:0E16F700C3E49FFFE49EFEE49DFDE49CFC2204
:10170500E86010ECA2E713FCED13FDEE13FEEF13FA
:04171500FFD8F022E7
:0C171900ECF0A3EDF0A3EEF0A3EFF02243
:10172500A8828583F0D083D08212173C12173C1211
:10173500173C12173CE473E493A3C583C5F0C58336
:10174500C8C582C8F0A3C583C5F0C583C8C582C80E
:011755002271
:0C2C1500EE30E707C3E49FFFE49EFE22C0
:10250C00021756E493A3F8E493A34003F68001F278
:10251C0008DFF48029E493A3F85407240CC8C333D0
:10252C00C4540F4420C8834004F456800146F6DF9F
:10253C00E4800B010204081020408090265EE47EAB
:10254C00019360BCA3FF543F30E509541FFEE49394
:10255C00A360010ECF54C025E060A840B8E493A35B
:10256C00FAE493A3F8E493A3C8C582C8CAC583CA86
:10257C00F0A3C8C582C8CAC583CADFE9DEE780BE3E
:0126B7000022
:00000001FF
